{
  "contractName": "WolframOracleMock",
  "abi": [
    {
      "inputs": [],
      "stateMutability": "nonpayable",
      "type": "constructor"
    },
    {
      "inputs": [],
      "name": "rollDice",
      "outputs": [
        {
          "internalType": "uint256",
          "name": "",
          "type": "uint256"
        }
      ],
      "stateMutability": "nonpayable",
      "type": "function"
    }
  ],
  "bytecode": "0x608060405234801561001057600080fd5b5060008055610131806100246000396000f3fe6080604052348015600f57600080fd5b506004361060285760003560e01c8063837e7cc614602d575b600080fd5b60336045565b60405190815260200160405180910390f35b6000806006423360005460405160200160839392919092835260609190911b6bffffffffffffffffffffffff19166020830152603482015260540190565b6040516020818303038152906040528051906020012060001c60a4919060da565b905060af81600160b5565b91505090565b6000821982111560d557634e487b7160e01b600052601160045260246000fd5b500190565b60008260f657634e487b7160e01b600052601260045260246000fd5b50069056fea26469706673582212205289156488099542f19844778932a5ce5e3b9a8317db213ba07c8cf1d489ed2264736f6c63430008070033",
  "immutableReferences": {},
  "source": "// SPDX-License-Identifier: MIT\r\npragma solidity >=0.4.22 <0.9.0;\r\n\r\nimport {IWolframOracle} from \"../interface/IWolframOracle.sol\";\r\n\r\ncontract WolframOracleMock is IWolframOracle {\r\n    uint256 nonce;\r\n\r\n    constructor () public {\r\n        nonce = 0;\r\n    }\r\n\r\n    function rollDice() override external returns(uint256) {\r\n        uint256 rnd = uint(keccak256(abi.encodePacked(block.timestamp, msg.sender, nonce))) % 6;\r\n        return rnd + 1;\r\n    }\r\n}",
  "sourcePath": "E:\\Blockchain\\20211221_Gamerse\\DiceCasino\\contracts\\mock\\WolframOracleMock.sol",
  "compiler": {
    "name": "solc",
    "version": "0.8.7+commit.e28d00a7.Emscripten.clang"
  },
  "schemaVersion": "3.4.3",
  "updatedAt": "2021-12-22T21:15:32.459Z",
  "devdoc": {
    "kind": "dev",
    "methods": {},
    "version": 1
  },
  "userdoc": {
    "kind": "user",
    "methods": {},
    "version": 1
  }
}