{
  "contractName": "WolframOracle",
  "abi": [
    {
      "inputs": [],
      "stateMutability": "nonpayable",
      "type": "constructor"
    },
    {
      "inputs": [],
      "name": "rollDice",
      "outputs": [
        {
          "internalType": "uint256",
          "name": "",
          "type": "uint256"
        }
      ],
      "stateMutability": "nonpayable",
      "type": "function"
    }
  ],
  "bytecode": "0x6080604052348015600f57600080fd5b50607780601d6000396000f3fe6080604052348015600f57600080fd5b506004361060285760003560e01c8063837e7cc614602d575b600080fd5b600060405190815260200160405180910390f3fea26469706673582212208f02d34acf3aaa09e0f5151e2f98f34f7e56a4dc02d7fad4c96240a5a98fccd564736f6c63430008070033",
  "immutableReferences": {},
  "source": "// SPDX-License-Identifier: MIT\r\npragma solidity >=0.4.22 <0.9.0;\r\n\r\nimport {IWolframOracle} from \"./interface/IWolframOracle.sol\";\r\n\r\ncontract WolframOracle is IWolframOracle {\r\n\r\n    constructor () public {\r\n    }\r\n\r\n    function rollDice() override external returns(uint256) {\r\n        return uint256(0);\r\n    }\r\n}",
  "sourcePath": "E:\\Blockchain\\20211221_Gamerse\\DiceCasino\\contracts\\WolframOracle.sol",
  "compiler": {
    "name": "solc",
    "version": "0.8.7+commit.e28d00a7.Emscripten.clang"
  },
  "schemaVersion": "3.4.3",
  "updatedAt": "2021-12-22T21:15:32.457Z",
  "devdoc": {
    "kind": "dev",
    "methods": {},
    "version": 1
  },
  "userdoc": {
    "kind": "user",
    "methods": {},
    "version": 1
  }
}